{
  "_format": "hh-sol-artifact-1",
  "contractName": "Transactions",
  "sourceName": "contracts/Transactions.sol",
  "abi": [
    {
      "anonymous": false,
      "inputs": [
        {
          "indexed": false,
          "internalType": "address",
          "name": "from",
          "type": "address"
        },
        {
          "indexed": false,
          "internalType": "address",
          "name": "receiver",
          "type": "address"
        },
        {
          "indexed": false,
          "internalType": "uint256",
          "name": "amount",
          "type": "uint256"
        },
        {
          "indexed": false,
          "internalType": "string",
          "name": "message",
          "type": "string"
        },
        {
          "indexed": false,
          "internalType": "uint256",
          "name": "timestamp",
          "type": "uint256"
        }
      ],
      "name": "Transfer",
      "type": "event"
    },
    {
      "inputs": [
        {
          "internalType": "address payable",
          "name": "receiver",
          "type": "address"
        },
        {
          "internalType": "uint256",
          "name": "amount",
          "type": "uint256"
        },
        {
          "internalType": "string",
          "name": "message",
          "type": "string"
        }
      ],
      "name": "addToBlockchain",
      "outputs": [],
      "stateMutability": "payable",
      "type": "function"
    },
    {
      "inputs": [],
      "name": "getAllTransactions",
      "outputs": [
        {
          "components": [
            {
              "internalType": "address",
              "name": "sender",
              "type": "address"
            },
            {
              "internalType": "address",
              "name": "receiver",
              "type": "address"
            },
            {
              "internalType": "uint256",
              "name": "amount",
              "type": "uint256"
            },
            {
              "internalType": "string",
              "name": "message",
              "type": "string"
            },
            {
              "internalType": "uint256",
              "name": "timestamp",
              "type": "uint256"
            }
          ],
          "internalType": "struct Transactions.TransferStruct[]",
          "name": "",
          "type": "tuple[]"
        }
      ],
      "stateMutability": "view",
      "type": "function"
    },
    {
      "inputs": [],
      "name": "getTransactionCount",
      "outputs": [
        {
          "internalType": "uint256",
          "name": "",
          "type": "uint256"
        }
      ],
      "stateMutability": "view",
      "type": "function"
    }
  ],
  "bytecode": "0x608060405234801561001057600080fd5b50610e10806100206000396000f3fe6080604052600436106100345760003560e01c806327506f53146100395780632e7700f014610064578063eb12da4a1461008f575b600080fd5b34801561004557600080fd5b5061004e6100ab565b60405161005b91906106a3565b60405180910390f35b34801561007057600080fd5b5061007961025c565b60405161008691906106d4565b60405180910390f35b6100a960048036038101906100a491906108a2565b610265565b005b60606001805480602002602001604051908101604052809291908181526020016000905b8282101561025357838290600052602060002090600502016040518060a00160405290816000820160009054906101000a900473ffffffffffffffffffffffffffffffffffffffff1673ffffffffffffffffffffffffffffffffffffffff1673ffffffffffffffffffffffffffffffffffffffff1681526020016001820160009054906101000a900473ffffffffffffffffffffffffffffffffffffffff1673ffffffffffffffffffffffffffffffffffffffff1673ffffffffffffffffffffffffffffffffffffffff168152602001600282015481526020016003820180546101b890610940565b80601f01602080910402602001604051908101604052809291908181526020018280546101e490610940565b80156102315780601f1061020657610100808354040283529160200191610231565b820191906000526020600020905b81548152906001019060200180831161021457829003601f168201915b50505050508152602001600482015481525050815260200190600101906100cf565b50505050905090565b60008054905090565b8134146102a7576040517f08c379a000000000000000000000000000000000000000000000000000000000815260040161029e906109ce565b60405180910390fd5b6000808154809291906102b990610a1d565b91905055508273ffffffffffffffffffffffffffffffffffffffff166108fc349081150290604051600060405180830381858888f19350505050158015610304573d6000803e3d6000fd5b5060016040518060a001604052803373ffffffffffffffffffffffffffffffffffffffff1681526020018573ffffffffffffffffffffffffffffffffffffffff16815260200184815260200183815260200142815250908060018154018082558091505060019003906000526020600020906005020160009091909190915060008201518160000160006101000a81548173ffffffffffffffffffffffffffffffffffffffff021916908373ffffffffffffffffffffffffffffffffffffffff16021790555060208201518160010160006101000a81548173ffffffffffffffffffffffffffffffffffffffff021916908373ffffffffffffffffffffffffffffffffffffffff1602179055506040820151816002015560608201518160030190816104309190610c11565b506080820151816004015550507fc4b32d7ff75a51e487f3cbb5d3202f2efecca1f4c2b987e0039c1d3220b48a833384848442604051610474959493929190610d80565b60405180910390a1505050565b600081519050919050565b600082825260208201905092915050565b6000819050602082019050919050565b600073ffffffffffffffffffffffffffffffffffffffff82169050919050565b60006104d8826104ad565b9050919050565b6104e8816104cd565b82525050565b6000819050919050565b610501816104ee565b82525050565b600081519050919050565b600082825260208201905092915050565b60005b83811015610541578082015181840152602081019050610526565b60008484015250505050565b6000601f19601f8301169050919050565b600061056982610507565b6105738185610512565b9350610583818560208601610523565b61058c8161054d565b840191505092915050565b600060a0830160008301516105af60008601826104df565b5060208301516105c260208601826104df565b5060408301516105d560408601826104f8565b50606083015184820360608601526105ed828261055e565b915050608083015161060260808601826104f8565b508091505092915050565b60006106198383610597565b905092915050565b6000602082019050919050565b600061063982610481565b610643818561048c565b9350836020820285016106558561049d565b8060005b858110156106915784840389528151610672858261060d565b945061067d83610621565b925060208a01995050600181019050610659565b50829750879550505050505092915050565b600060208201905081810360008301526106bd818461062e565b905092915050565b6106ce816104ee565b82525050565b60006020820190506106e960008301846106c5565b92915050565b6000604051905090565b600080fd5b600080fd5b600061070e826104ad565b9050919050565b61071e81610703565b811461072957600080fd5b50565b60008135905061073b81610715565b92915050565b61074a816104ee565b811461075557600080fd5b50565b60008135905061076781610741565b92915050565b600080fd5b600080fd5b7f4e487b7100000000000000000000000000000000000000000000000000000000600052604160045260246000fd5b6107af8261054d565b810181811067ffffffffffffffff821117156107ce576107cd610777565b5b80604052505050565b60006107e16106ef565b90506107ed82826107a6565b919050565b600067ffffffffffffffff82111561080d5761080c610777565b5b6108168261054d565b9050602081019050919050565b82818337600083830152505050565b6000610845610840846107f2565b6107d7565b90508281526020810184848401111561086157610860610772565b5b61086c848285610823565b509392505050565b600082601f8301126108895761088861076d565b5b8135610899848260208601610832565b91505092915050565b6000806000606084860312156108bb576108ba6106f9565b5b60006108c98682870161072c565b93505060206108da86828701610758565b925050604084013567ffffffffffffffff8111156108fb576108fa6106fe565b5b61090786828701610874565b9150509250925092565b7f4e487b7100000000000000000000000000000000000000000000000000000000600052602260045260246000fd5b6000600282049050600182168061095857607f821691505b60208210810361096b5761096a610911565b5b50919050565b600082825260208201905092915050565b7f416d6f756e74206d69736d617463680000000000000000000000000000000000600082015250565b60006109b8600f83610971565b91506109c382610982565b602082019050919050565b600060208201905081810360008301526109e7816109ab565b9050919050565b7f4e487b7100000000000000000000000000000000000000000000000000000000600052601160045260246000fd5b6000610a28826104ee565b91507fffffffffffffffffffffffffffffffffffffffffffffffffffffffffffffffff8203610a5a57610a596109ee565b5b600182019050919050565b60008190508160005260206000209050919050565b60006020601f8301049050919050565b600082821b905092915050565b600060088302610ac77fffffffffffffffffffffffffffffffffffffffffffffffffffffffffffffffff82610a8a565b610ad18683610a8a565b95508019841693508086168417925050509392505050565b6000819050919050565b6000610b0e610b09610b04846104ee565b610ae9565b6104ee565b9050919050565b6000819050919050565b610b2883610af3565b610b3c610b3482610b15565b848454610a97565b825550505050565b600090565b610b51610b44565b610b5c818484610b1f565b505050565b5b81811015610b8057610b75600082610b49565b600181019050610b62565b5050565b601f821115610bc557610b9681610a65565b610b9f84610a7a565b81016020851015610bae578190505b610bc2610bba85610a7a565b830182610b61565b50505b505050565b600082821c905092915050565b6000610be860001984600802610bca565b1980831691505092915050565b6000610c018383610bd7565b9150826002028217905092915050565b610c1a82610507565b67ffffffffffffffff811115610c3357610c32610777565b5b610c3d8254610940565b610c48828285610b84565b600060209050601f831160018114610c7b5760008415610c69578287015190505b610c738582610bf5565b865550610cdb565b601f198416610c8986610a65565b60005b82811015610cb157848901518255600182019150602085019450602081019050610c8c565b86831015610cce5784890151610cca601f891682610bd7565b8355505b6001600288020188555050505b505050505050565b610cec816104cd565b82525050565b6000610d0d610d08610d03846104ad565b610ae9565b6104ad565b9050919050565b6000610d1f82610cf2565b9050919050565b6000610d3182610d14565b9050919050565b610d4181610d26565b82525050565b6000610d5282610507565b610d5c8185610971565b9350610d6c818560208601610523565b610d758161054d565b840191505092915050565b600060a082019050610d956000830188610ce3565b610da26020830187610d38565b610daf60408301866106c5565b8181036060830152610dc18185610d47565b9050610dd060808301846106c5565b969550505050505056fea2646970667358221220dff030e375bd6ccfb506ccca75d8bdc30d2dd054fe311ae8f940d200f4239ad264736f6c63430008130033",
  "linkReferences": {},
  "deployedLinkReferences": {}
}